Archive member included to satisfy reference by file (symbol)

c:/ac6/systemworkbench/plugins/fr.ac6.mcu.externaltools.arm-none.win32_1.17.0.201812190825/tools/compiler/bin/../lib/gcc/arm-none-eabi/7.3.1/../../../../arm-none-eabi/lib/thumb/v7-m\libc_nano.a(lib_a-errno.o)
                              Src/syscalls.o (__errno)
c:/ac6/systemworkbench/plugins/fr.ac6.mcu.externaltools.arm-none.win32_1.17.0.201812190825/tools/compiler/bin/../lib/gcc/arm-none-eabi/7.3.1/../../../../arm-none-eabi/lib/thumb/v7-m\libc_nano.a(lib_a-exit.o)
                              c:/ac6/systemworkbench/plugins/fr.ac6.mcu.externaltools.arm-none.win32_1.17.0.201812190825/tools/compiler/bin/../lib/gcc/arm-none-eabi/7.3.1/../../../../arm-none-eabi/lib/thumb/v7-m/crt0.o (exit)
c:/ac6/systemworkbench/plugins/fr.ac6.mcu.externaltools.arm-none.win32_1.17.0.201812190825/tools/compiler/bin/../lib/gcc/arm-none-eabi/7.3.1/../../../../arm-none-eabi/lib/thumb/v7-m\libc_nano.a(lib_a-impure.o)
                              c:/ac6/systemworkbench/plugins/fr.ac6.mcu.externaltools.arm-none.win32_1.17.0.201812190825/tools/compiler/bin/../lib/gcc/arm-none-eabi/7.3.1/../../../../arm-none-eabi/lib/thumb/v7-m\libc_nano.a(lib_a-exit.o) (_global_impure_ptr)
c:/ac6/systemworkbench/plugins/fr.ac6.mcu.externaltools.arm-none.win32_1.17.0.201812190825/tools/compiler/bin/../lib/gcc/arm-none-eabi/7.3.1/../../../../arm-none-eabi/lib/thumb/v7-m\libc_nano.a(lib_a-init.o)
                              c:/ac6/systemworkbench/plugins/fr.ac6.mcu.externaltools.arm-none.win32_1.17.0.201812190825/tools/compiler/bin/../lib/gcc/arm-none-eabi/7.3.1/../../../../arm-none-eabi/lib/thumb/v7-m/crt0.o (__libc_init_array)
c:/ac6/systemworkbench/plugins/fr.ac6.mcu.externaltools.arm-none.win32_1.17.0.201812190825/tools/compiler/bin/../lib/gcc/arm-none-eabi/7.3.1/../../../../arm-none-eabi/lib/thumb/v7-m\libc_nano.a(lib_a-memcpy-stub.o)
                              FreeModbus/functions/mbfuncother.o (memcpy)
c:/ac6/systemworkbench/plugins/fr.ac6.mcu.externaltools.arm-none.win32_1.17.0.201812190825/tools/compiler/bin/../lib/gcc/arm-none-eabi/7.3.1/../../../../arm-none-eabi/lib/thumb/v7-m\libc_nano.a(lib_a-memset.o)
                              c:/ac6/systemworkbench/plugins/fr.ac6.mcu.externaltools.arm-none.win32_1.17.0.201812190825/tools/compiler/bin/../lib/gcc/arm-none-eabi/7.3.1/../../../../arm-none-eabi/lib/thumb/v7-m/crt0.o (memset)

Allocating common symbols
Common symbol       size              file

pxMBFrameCBTransmitterEmpty
                    0x4               FreeModbus/mb.o
tim                 0x4               FreeModbus/port/porttimer.o
pxMBPortCBTimerExpired
                    0x4               FreeModbus/mb.o
htim4               0x48              Src/main.o
uwTick              0x4               Drivers/STM32F1xx_HAL_Driver/Src/stm32f1xx_hal.o
pFlash              0x20              Drivers/STM32F1xx_HAL_Driver/Src/stm32f1xx_hal_flash.o
ucRTUBuf            0x100             FreeModbus/rtu/mbrtu.o
pxMBFrameCBByteReceived
                    0x4               FreeModbus/mb.o
huart1              0x40              Src/main.o
pxMBFrameCBTransmitFSMCur
                    0x4               FreeModbus/mb.o
ucSDiscInBuf        0x1               FreeModbus/app/user_mb_app.o
adc_data            0x4               Src/main.o
usSRegHoldBuf       0x28              FreeModbus/app/user_mb_app.o
pxMBFrameCBReceiveFSMCur
                    0x4               FreeModbus/mb.o
uart                0x4               FreeModbus/port/portserial.o

Discarded input sections

 .text          0x00000000        0x0 c:/ac6/systemworkbench/plugins/fr.ac6.mcu.externaltools.arm-none.win32_1.17.0.201812190825/tools/compiler/bin/../lib/gcc/arm-none-eabi/7.3.1/thumb/v7-m/crti.o
 .data          0x00000000        0x0 c:/ac6/systemworkbench/plugins/fr.ac6.mcu.externaltools.arm-none.win32_1.17.0.201812190825/tools/compiler/bin/../lib/gcc/arm-none-eabi/7.3.1/thumb/v7-m/crti.o
 .bss           0x00000000        0x0 c:/ac6/systemworkbench/plugins/fr.ac6.mcu.externaltools.arm-none.win32_1.17.0.201812190825/tools/compiler/bin/../lib/gcc/arm-none-eabi/7.3.1/thumb/v7-m/crti.o
 .data          0x00000000        0x4 c:/ac6/systemworkbench/plugins/fr.ac6.mcu.externaltools.arm-none.win32_1.17.0.201812190825/tools/compiler/bin/../lib/gcc/arm-none-eabi/7.3.1/thumb/v7-m/crtbegin.o
 .text          0x00000000       0x74 c:/ac6/systemworkbench/plugins/fr.ac6.mcu.externaltools.arm-none.win32_1.17.0.201812190825/tools/compiler/bin/../lib/gcc/arm-none-eabi/7.3.1/../../../../arm-none-eabi/lib/thumb/v7-m/crt0.o
 .data          0x00000000        0x0 c:/ac6/systemworkbench/plugins/fr.ac6.mcu.externaltools.arm-none.win32_1.17.0.201812190825/tools/compiler/bin/../lib/gcc/arm-none-eabi/7.3.1/../../../../arm-none-eabi/lib/thumb/v7-m/crt0.o
 .bss           0x00000000        0x0 c:/ac6/systemworkbench/plugins/fr.ac6.mcu.externaltools.arm-none.win32_1.17.0.201812190825/tools/compiler/bin/../lib/gcc/arm-none-eabi/7.3.1/../../../../arm-none-eabi/lib/thumb/v7-m/crt0.o
 .ARM.extab     0x00000000        0x0 c:/ac6/systemworkbench/plugins/fr.ac6.mcu.externaltools.arm-none.win32_1.17.0.201812190825/tools/compiler/bin/../lib/gcc/arm-none-eabi/7.3.1/../../../../arm-none-eabi/lib/thumb/v7-m/crt0.o
 .ARM.exidx     0x00000000        0x8 c:/ac6/systemworkbench/plugins/fr.ac6.mcu.externaltools.arm-none.win32_1.17.0.201812190825/tools/compiler/bin/../lib/gcc/arm-none-eabi/7.3.1/../../../../arm-none-eabi/lib/thumb/v7-m/crt0.o
 .ARM.attributes
                0x00000000       0x1b c:/ac6/systemworkbench/plugins/fr.ac6.mcu.externaltools.arm-none.win32_1.17.0.201812190825/tools/compiler/bin/../lib/gcc/arm-none-eabi/7.3.1/../../../../arm-none-eabi/lib/thumb/v7-m/crt0.o
 .group         0x00000000        0xc Drivers/STM32F1xx_HAL_Driver/Src/stm32f1xx_hal.o
 .group         0x00000000        0xc Drivers/STM32F1xx_HAL_Driver/Src/stm32f1xx_hal.o
 .group         0x00000000        0xc Drivers/STM32F1xx_HAL_Driver/Src/stm32f1xx_hal.o
 .group         0x00000000        0xc Drivers/STM32F1xx_HAL_Driver/Src/stm32f1xx_hal.o
 .group         0x00000000        0xc Drivers/STM32F1xx_HAL_Driver/Src/stm32f1xx_hal.o
 .group         0x00000000        0xc Drivers/STM32F1xx_HAL_Driver/Src/stm32f1xx_hal.o
 .group         0x00000000        0xc Drivers/STM32F1xx_HAL_Driver/Src/stm32f1xx_hal.o
Memory Configuration

Name             Origin             Length             Attributes
RAM              0x20000000         0x00005000         xrw
FLASH            0x08000000         0x00010000         xr
*default*        0x00000000         0xffffffff

Linker script and memory map

LOAD c:/ac6/systemworkbench/plugins/fr.ac6.mcu.externaltools.arm-none.win32_1.17.0.201812190825/tools/compiler/bin/../lib/gcc/arm-none-eabi/7.3.1/thumb/v7-m/crti.o
LOAD c:/ac6/systemworkbench/plugins/fr.ac6.mcu.externaltools.arm-none.win32_1.17.0.201812190825/tools/compiler/bin/../lib/gcc/arm-none-eabi/7.3.1/thumb/v7-m/crtbegin.o
LOAD c:/ac6/systemworkbench/plugins/fr.ac6.mcu.externaltools.arm-none.win32_1.17.0.201812190825/tools/compiler/bin/../lib/gcc/arm-none-eabi/7.3.1/../../../../arm-none-eabi/lib/thumb/v7-m/crt0.o
LOAD Drivers/STM32F1xx_HAL_Driver/Src/stm32f1xx_hal.o
LOAD Drivers/STM32F1xx_HAL_Driver/Src/stm32f1xx_hal_cortex.o
LOAD Drivers/STM32F1xx_HAL_Driver/Src/stm32f1xx_hal_dma.o
LOAD Drivers/STM32F1xx_HAL_Driver/Src/stm32f1xx_hal_exti.o
LOAD Drivers/STM32F1xx_HAL_Driver/Src/stm32f1xx_hal_flash.o
LOAD Drivers/STM32F1xx_HAL_Driver/Src/stm32f1xx_hal_flash_ex.o
LOAD Drivers/STM32F1xx_HAL_Driver/Src/stm32f1xx_hal_gpio.o
LOAD Drivers/STM32F1xx_HAL_Driver/Src/stm32f1xx_hal_gpio_ex.o
LOAD Drivers/STM32F1xx_HAL_Driver/Src/stm32f1xx_hal_pwr.o
LOAD Drivers/STM32F1xx_HAL_Driver/Src/stm32f1xx_hal_rcc.o
LOAD Drivers/STM32F1xx_HAL_Driver/Src/stm32f1xx_hal_rcc_ex.o
LOAD Drivers/STM32F1xx_HAL_Driver/Src/stm32f1xx_hal_tim.o
LOAD Drivers/STM32F1xx_HAL_Driver/Src/stm32f1xx_hal_tim_ex.o
LOAD Drivers/STM32F1xx_HAL_Driver/Src/stm32f1xx_hal_uart.o
LOAD FreeModbus/app/user_mb_app.o
LOAD FreeModbus/app/user_mb_app_m.o
LOAD FreeModbus/ascii/mbascii.o
LOAD FreeModbus/functions/mbfunccoils.o
LOAD FreeModbus/functions/mbfunccoils_m.o
LOAD FreeModbus/functions/mbfuncdiag.o
LOAD FreeModbus/functions/mbfuncdisc.o
LOAD FreeModbus/functions/mbfuncdisc_m.o
LOAD FreeModbus/functions/mbfuncholding.o
LOAD FreeModbus/functions/mbfuncholding_m.o
LOAD FreeModbus/functions/mbfuncinput.o
LOAD FreeModbus/functions/mbfuncinput_m.o
LOAD FreeModbus/functions/mbfuncother.o
LOAD FreeModbus/functions/mbutils.o
LOAD FreeModbus/mb.o
LOAD FreeModbus/mb_m.o
LOAD FreeModbus/port/portcritical.o
LOAD FreeModbus/port/portevent.o
LOAD FreeModbus/port/portevent_m.o
LOAD FreeModbus/port/portserial.o
LOAD FreeModbus/port/portserial_m.o
LOAD FreeModbus/port/porttimer.o
LOAD FreeModbus/port/porttimer_m.o
LOAD FreeModbus/rtu/mbcrc.o
LOAD FreeModbus/rtu/mbrtu.o
LOAD FreeModbus/rtu/mbrtu_m.o
LOAD FreeModbus/tcp/mbtcp.o
LOAD Src/main.o
LOAD Src/stm32f1xx_hal_msp.o
LOAD Src/stm32f1xx_it.o
LOAD Src/syscalls.o
LOAD Src/system_stm32f1xx.o
LOAD startup/startup_stm32f103xb.o
LOAD c:/ac6/systemworkbench/plugins/fr.ac6.mcu.externaltools.arm-none.win32_1.17.0.201812190825/tools/compiler/bin/../lib/gcc/arm-none-eabi/7.3.1/../../../../arm-none-eabi/lib/thumb/v7-m\libm.a
START GROUP
LOAD c:/ac6/systemworkbench/plugins/fr.ac6.mcu.externaltools.arm-none.win32_1.17.0.201812190825/tools/compiler/bin/../lib/gcc/arm-none-eabi/7.3.1/thumb/v7-m\libgcc.a
LOAD c:/ac6/systemworkbench/plugins/fr.ac6.mcu.externaltools.arm-none.win32_1.17.0.201812190825/tools/compiler/bin/../lib/gcc/arm-none-eabi/7.3.1/../../../../arm-none-eabi/lib/thumb/v7-m\libc_nano.a
END GROUP
START GROUP
LOAD c:/ac6/systemworkbench/plugins/fr.ac6.mcu.externaltools.arm-none.win32_1.17.0.201812190825/tools/compiler/bin/../lib/gcc/arm-none-eabi/7.3.1/thumb/v7-m\libgcc.a
LOAD c:/ac6/systemworkbench/plugins/fr.ac6.mcu.externaltools.arm-none.win32_1.17.0.201812190825/tools/compiler/bin/../lib/gcc/arm-none-eabi/7.3.1/../../../../arm-none-eabi/lib/thumb/v7-m\libc_nano.a
LOAD c:/ac6/systemworkbench/plugins/fr.ac6.mcu.externaltools.arm-none.win32_1.17.0.201812190825/tools/compiler/bin/../lib/gcc/arm-none-eabi/7.3.1/../../../../arm-none-eabi/lib/thumb/v7-m\libnosys.a
END GROUP
START GROUP
LOAD c:/ac6/systemworkbench/plugins/fr.ac6.mcu.externaltools.arm-none.win32_1.17.0.201812190825/tools/compiler/bin/../lib/gcc/arm-none-eabi/7.3.1/thumb/v7-m\libgcc.a
LOAD c:/ac6/systemworkbench/plugins/fr.ac6.mcu.externaltools.arm-none.win32_1.17.0.201812190825/tools/compiler/bin/../lib/gcc/arm-none-eabi/7.3.1/../../../../arm-none-eabi/lib/thumb/v7-m\libc_nano.a
LOAD c:/ac6/systemworkbench/plugins/fr.ac6.mcu.externaltools.arm-none.win32_1.17.0.201812190825/tools/compiler/bin/../lib/gcc/arm-none-eabi/7.3.1/../../../../arm-none-eabi/lib/thumb/v7-m\libnosys.a
END GROUP
LOAD c:/ac6/systemworkbench/plugins/fr.ac6.mcu.externaltools.arm-none.win32_1.17.0.201812190825/tools/compiler/bin/../lib/gcc/arm-none-eabi/7.3.1/thumb/v7-m/crtend.o
LOAD c:/ac6/systemworkbench/plugins/fr.ac6.mcu.externaltools.arm-none.win32_1.17.0.201812190825/tools/compiler/bin/../lib/gcc/arm-none-eabi/7.3.1/thumb/v7-m/crtn.o
                0x20005000                _estack = 0x20005000
                0x00000200                _Min_Heap_Size = 0x200
                0x00000400                _Min_Stack_Size = 0x400

.isr_vector     0x08000000      0x10c
                0x08000000                . = ALIGN (0x4)
 *(.isr_vector)
 .isr_vector    0x08000000      0x10c startup/startup_stm32f103xb.o
                0x08000000                g_pfnVectors
                0x0800010c                . = ALIGN (0x4)

.text           0x0800010c     0x2358
                0x0800010c                . = ALIGN (0x4)
 *(.text)
 .text          0x0800010c       0x40 c:/ac6/systemworkbench/plugins/fr.ac6.mcu.externaltools.arm-none.win32_1.17.0.201812190825/tools/compiler/bin/../lib/gcc/arm-none-eabi/7.3.1/thumb/v7-m/crtbegin.o
 *(.text*)
 .text.HAL_InitTick
                0x0800014c       0x48 Drivers/STM32F1xx_HAL_Driver/Src/stm32f1xx_hal.o
                0x0800014c                HAL_InitTick
 .text.HAL_Init
                0x08000194       0x24 Drivers/STM32F1xx_HAL_Driver/Src/stm32f1xx_hal.o
                0x08000194                HAL_Init
 .text.HAL_IncTick
                0x080001b8       0x18 Drivers/STM32F1xx_HAL_Driver/Src/stm32f1xx_hal.o
                0x080001b8                HAL_IncTick
 .text.HAL_GetTick
                0x080001d0        0xc Drivers/STM32F1xx_HAL_Driver/Src/stm32f1xx_hal.o
                0x080001d0                HAL_GetTick
 .text.HAL_NVIC_SetPriorityGrouping
                0x080001dc       0x24 Drivers/STM32F1xx_HAL_Driver/Src/stm32f1xx_hal_cortex.o
                0x080001dc                HAL_NVIC_SetPriorityGrouping
 .text.HAL_NVIC_SetPriority
                0x08000200       0x68 Drivers/STM32F1xx_HAL_Driver/Src/stm32f1xx_hal_cortex.o
                0x08000200                HAL_NVIC_SetPriority
 .text.HAL_NVIC_EnableIRQ
                0x08000268       0x1c Drivers/STM32F1xx_HAL_Driver/Src/stm32f1xx_hal_cortex.o
                0x08000268                HAL_NVIC_EnableIRQ
 .text.HAL_SYSTICK_Config
                0x08000284       0x2c Drivers/STM32F1xx_HAL_Driver/Src/stm32f1xx_hal_cortex.o
                0x08000284                HAL_SYSTICK_Config
 .text.HAL_DMA_Abort_IT
                0x080002b0       0x98 Drivers/STM32F1xx_HAL_Driver/Src/stm32f1xx_hal_dma.o
                0x080002b0                HAL_DMA_Abort_IT
 .text.HAL_GPIO_Init
                0x08000348      0x1d8 Drivers/STM32F1xx_HAL_Driver/Src/stm32f1xx_hal_gpio.o
                0x08000348                HAL_GPIO_Init
 .text.HAL_GPIO_WritePin
                0x08000520        0xc Drivers/STM32F1xx_HAL_Driver/Src/stm32f1xx_hal_gpio.o
                0x08000520                HAL_GPIO_WritePin
 .text.RCC_Delay
                0x0800052c       0x2c Drivers/STM32F1xx_HAL_Driver/Src/stm32f1xx_hal_rcc.o
 .text.HAL_RCC_OscConfig
                0x08000558      0x410 Drivers/STM32F1xx_HAL_Driver/Src/stm32f1xx_hal_rcc.o
                0x08000558                HAL_RCC_OscConfig
 .text.HAL_RCC_GetSysClockFreq
                0x08000968       0x70 Drivers/STM32F1xx_HAL_Driver/Src/stm32f1xx_hal_rcc.o
                0x08000968                HAL_RCC_GetSysClockFreq
 .text.HAL_RCC_ClockConfig
                0x080009d8      0x168 Drivers/STM32F1xx_HAL_Driver/Src/stm32f1xx_hal_rcc.o
                0x080009d8                HAL_RCC_ClockConfig
 .text.HAL_RCC_GetHCLKFreq
                0x08000b40        0xc Drivers/STM32F1xx_HAL_Driver/Src/stm32f1xx_hal_rcc.o
                0x08000b40                HAL_RCC_GetHCLKFreq
 .text.HAL_RCC_GetPCLK1Freq
                0x08000b4c       0x20 Drivers/STM32F1xx_HAL_Driver/Src/stm32f1xx_hal_rcc.o
                0x08000b4c                HAL_RCC_GetPCLK1Freq
 .text.HAL_RCC_GetPCLK2Freq
                0x08000b6c       0x20 Drivers/STM32F1xx_HAL_Driver/Src/stm32f1xx_hal_rcc.o
                0x08000b6c                HAL_RCC_GetPCLK2Freq
 .text.TIM_TI1_ConfigInputStage
                0x08000b8c       0x24 Drivers/STM32F1xx_HAL_Driver/Src/stm32f1xx_hal_tim.o
 .text.TIM_TI2_ConfigInputStage
                0x08000bb0       0x26 Drivers/STM32F1xx_HAL_Driver/Src/stm32f1xx_hal_tim.o
 .text.TIM_ITRx_SetConfig
                0x08000bd6       0x10 Drivers/STM32F1xx_HAL_Driver/Src/stm32f1xx_hal_tim.o
 *fill*         0x08000be6        0x2 
 .text.HAL_TIM_Base_Start_IT
                0x08000be8       0x68 Drivers/STM32F1xx_HAL_Driver/Src/stm32f1xx_hal_tim.o
                0x08000be8                HAL_TIM_Base_Start_IT
 .text.HAL_TIM_Base_Stop_IT
                0x08000c50       0x32 Drivers/STM32F1xx_HAL_Driver/Src/stm32f1xx_hal_tim.o
                0x08000c50                HAL_TIM_Base_Stop_IT
 .text.HAL_TIM_OC_DelayElapsedCallback
                0x08000c82        0x2 Drivers/STM32F1xx_HAL_Driver/Src/stm32f1xx_hal_tim.o
                0x08000c82                HAL_TIM_OC_DelayElapsedCallback
 .text.HAL_TIM_IC_CaptureCallback
                0x08000c84        0x2 Drivers/STM32F1xx_HAL_Driver/Src/stm32f1xx_hal_tim.o
                0x08000c84                HAL_TIM_IC_CaptureCallback
 .text.HAL_TIM_PWM_PulseFinishedCallback
                0x08000c86        0x2 Drivers/STM32F1xx_HAL_Driver/Src/stm32f1xx_hal_tim.o
                0x08000c86                HAL_TIM_PWM_PulseFinishedCallback
 .text.HAL_TIM_TriggerCallback
                0x08000c88        0x2 Drivers/STM32F1xx_HAL_Driver/Src/stm32f1xx_hal_tim.o
                0x08000c88                HAL_TIM_TriggerCallback
 .text.HAL_TIM_IRQHandler
                0x08000c8a      0x17a Drivers/STM32F1xx_HAL_Driver/Src/stm32f1xx_hal_tim.o
                0x08000c8a                HAL_TIM_IRQHandler
 .text.TIM_Base_SetConfig
                0x08000e04       0x74 Drivers/STM32F1xx_HAL_Driver/Src/stm32f1xx_hal_tim.o
                0x08000e04                TIM_Base_SetConfig
 .text.HAL_TIM_Base_Init
                0x08000e78       0x56 Drivers/STM32F1xx_HAL_Driver/Src/stm32f1xx_hal_tim.o
                0x08000e78                HAL_TIM_Base_Init
 .text.TIM_ETR_SetConfig
                0x08000ece       0x16 Drivers/STM32F1xx_HAL_Driver/Src/stm32f1xx_hal_tim.o
                0x08000ece                TIM_ETR_SetConfig
 .text.HAL_TIM_ConfigClockSource
                0x08000ee4       0xda Drivers/STM32F1xx_HAL_Driver/Src/stm32f1xx_hal_tim.o
                0x08000ee4                HAL_TIM_ConfigClockSource
 *fill*         0x08000fbe        0x2 
 .text.HAL_TIMEx_MasterConfigSynchronization
                0x08000fc0       0x68 Drivers/STM32F1xx_HAL_Driver/Src/stm32f1xx_hal_tim_ex.o
                0x08000fc0                HAL_TIMEx_MasterConfigSynchronization
 .text.HAL_TIMEx_CommutCallback
                0x08001028        0x2 Drivers/STM32F1xx_HAL_Driver/Src/stm32f1xx_hal_tim_ex.o
                0x08001028                HAL_TIMEx_CommutCallback
 .text.HAL_TIMEx_BreakCallback
                0x0800102a        0x2 Drivers/STM32F1xx_HAL_Driver/Src/stm32f1xx_hal_tim_ex.o
                0x0800102a                HAL_TIMEx_BreakCallback
 .text.UART_EndRxTransfer
                0x0800102c       0x1c Drivers/STM32F1xx_HAL_Driver/Src/stm32f1xx_hal_uart.o
 .text.UART_Transmit_IT
                0x08001048       0x62 Drivers/STM32F1xx_HAL_Driver/Src/stm32f1xx_hal_uart.o
 *fill*         0x080010aa        0x2 
 .text.UART_SetConfig
                0x080010ac       0x90 Drivers/STM32F1xx_HAL_Driver/Src/stm32f1xx_hal_uart.o
 .text.HAL_UART_Init
                0x0800113c       0x5e Drivers/STM32F1xx_HAL_Driver/Src/stm32f1xx_hal_uart.o
                0x0800113c                HAL_UART_Init
 .text.HAL_UART_Transmit_IT
                0x0800119a       0x48 Drivers/STM32F1xx_HAL_Driver/Src/stm32f1xx_hal_uart.o
                0x0800119a                HAL_UART_Transmit_IT
 .text.HAL_UART_Receive_IT
                0x080011e2       0x5c Drivers/STM32F1xx_HAL_Driver/Src/stm32f1xx_hal_uart.o
                0x080011e2                HAL_UART_Receive_IT
 .text.UART_EndTransmit_IT
                0x0800123e       0x1a Drivers/STM32F1xx_HAL_Driver/Src/stm32f1xx_hal_uart.o
 .text.UART_Receive_IT
                0x08001258       0x92 Drivers/STM32F1xx_HAL_Driver/Src/stm32f1xx_hal_uart.o
 .text.HAL_UART_ErrorCallback
                0x080012ea        0x2 Drivers/STM32F1xx_HAL_Driver/Src/stm32f1xx_hal_uart.o
                0x080012ea                HAL_UART_ErrorCallback
 .text.HAL_UART_IRQHandler
                0x080012ec      0x128 Drivers/STM32F1xx_HAL_Driver/Src/stm32f1xx_hal_uart.o
                0x080012ec                HAL_UART_IRQHandler
 .text.UART_DMAAbortOnError
                0x08001414       0x10 Drivers/STM32F1xx_HAL_Driver/Src/stm32f1xx_hal_uart.o
 .text.HAL_UART_AbortTransmitCpltCallback
                0x08001424        0x2 Drivers/STM32F1xx_HAL_Driver/Src/stm32f1xx_hal_uart.o
                0x08001424                HAL_UART_AbortTransmitCpltCallback
 *fill*         0x08001426        0x2 
 .text.HAL_UART_AbortTransmit_IT
                0x08001428       0x60 Drivers/STM32F1xx_HAL_Driver/Src/stm32f1xx_hal_uart.o
                0x08001428                HAL_UART_AbortTransmit_IT
 .text.UART_DMATxOnlyAbortCallback
                0x08001488       0x14 Drivers/STM32F1xx_HAL_Driver/Src/stm32f1xx_hal_uart.o
 .text.HAL_UART_AbortReceiveCpltCallback
                0x0800149c        0x2 Drivers/STM32F1xx_HAL_Driver/Src/stm32f1xx_hal_uart.o
                0x0800149c                HAL_UART_AbortReceiveCpltCallback
 *fill*         0x0800149e        0x2 
 .text.HAL_UART_AbortReceive_IT
                0x080014a0       0x68 Drivers/STM32F1xx_HAL_Driver/Src/stm32f1xx_hal_uart.o
                0x080014a0                HAL_UART_AbortReceive_IT
 .text.UART_DMARxOnlyAbortCallback
                0x08001508       0x14 Drivers/STM32F1xx_HAL_Driver/Src/stm32f1xx_hal_uart.o
 .text.eMBRegInputCB
                0x0800151c        0x4 FreeModbus/app/user_mb_app.o
                0x0800151c                eMBRegInputCB
 .text.eMBRegHoldingCB
                0x08001520       0x7c FreeModbus/app/user_mb_app.o
                0x08001520                eMBRegHoldingCB
 .text.eMBRegCoilsCB
                0x0800159c        0x4 FreeModbus/app/user_mb_app.o
                0x0800159c                eMBRegCoilsCB
 .text.eMBRegDiscreteCB
                0x080015a0       0x78 FreeModbus/app/user_mb_app.o
                0x080015a0                eMBRegDiscreteCB
 .text.eMBFuncReadCoils
                0x08001618       0x78 FreeModbus/functions/mbfunccoils.o
                0x08001618                eMBFuncReadCoils
 .text.eMBFuncWriteCoil
                0x08001690       0x62 FreeModbus/functions/mbfunccoils.o
                0x08001690                eMBFuncWriteCoil
 .text.eMBFuncWriteMultipleCoils
                0x080016f2       0x68 FreeModbus/functions/mbfunccoils.o
                0x080016f2                eMBFuncWriteMultipleCoils
 .text.eMBFuncReadDiscreteInputs
                0x0800175a       0x76 FreeModbus/functions/mbfuncdisc.o
                0x0800175a                eMBFuncReadDiscreteInputs
 .text.eMBFuncWriteHoldingRegister
                0x080017d0       0x2e FreeModbus/functions/mbfuncholding.o
                0x080017d0                eMBFuncWriteHoldingRegister
 .text.eMBFuncWriteMultipleHoldingRegister
                0x080017fe       0x56 FreeModbus/functions/mbfuncholding.o
                0x080017fe                eMBFuncWriteMultipleHoldingRegister
 .text.eMBFuncReadHoldingRegister
                0x08001854       0x66 FreeModbus/functions/mbfuncholding.o
                0x08001854                eMBFuncReadHoldingRegister
 .text.eMBFuncReadWriteMultipleHoldingRegister
                0x080018ba       0xb6 FreeModbus/functions/mbfuncholding.o
                0x080018ba                eMBFuncReadWriteMultipleHoldingRegister
 .text.eMBFuncReadInputRegister
                0x08001970       0x66 FreeModbus/functions/mbfuncinput.o
                0x08001970                eMBFuncReadInputRegister
 *fill*         0x080019d6        0x2 
 .text.eMBFuncReportSlaveID
                0x080019d8       0x1c FreeModbus/functions/mbfuncother.o
                0x080019d8                eMBFuncReportSlaveID
 .text.xMBUtilGetBits
                0x080019f4       0x28 FreeModbus/functions/mbutils.o
                0x080019f4                xMBUtilGetBits
 .text.prveMBError2Exception
                0x08001a1c       0x1a FreeModbus/functions/mbutils.o
                0x08001a1c                prveMBError2Exception
 *fill*         0x08001a36        0x2 
 .text.eMBInit  0x08001a38       0x98 FreeModbus/mb.o
                0x08001a38                eMBInit
 .text.eMBEnable
                0x08001ad0       0x24 FreeModbus/mb.o
                0x08001ad0                eMBEnable
 .text.eMBPoll  0x08001af4       0xe8 FreeModbus/mb.o
                0x08001af4                eMBPoll
 .text.__critical_enter
                0x08001bdc       0x10 FreeModbus/port/portcritical.o
                0x08001bdc                __critical_enter
 .text.__critical_exit
                0x08001bec       0x14 FreeModbus/port/portcritical.o
                0x08001bec                __critical_exit
 .text.xMBPortEventInit
                0x08001c00       0x10 FreeModbus/port/portevent.o
                0x08001c00                xMBPortEventInit
 .text.xMBPortEventPost
                0x08001c10       0x10 FreeModbus/port/portevent.o
                0x08001c10                xMBPortEventPost
 .text.xMBPortEventGet
                0x08001c20       0x1c FreeModbus/port/portevent.o
                0x08001c20                xMBPortEventGet
 .text.xMBPortSerialInit
                0x08001c3c        0xc FreeModbus/port/portserial.o
                0x08001c3c                xMBPortSerialInit
 .text.vMBPortSerialEnable
                0x08001c48       0x58 FreeModbus/port/portserial.o
                0x08001c48                vMBPortSerialEnable
 .text.xMBPortSerialPutBytes
                0x08001ca0       0x18 FreeModbus/port/portserial.o
                0x08001ca0                xMBPortSerialPutBytes
 .text.xMBPortSerialGetByte
                0x08001cb8       0x10 FreeModbus/port/portserial.o
                0x08001cb8                xMBPortSerialGetByte
 .text.HAL_UART_RxCpltCallback
                0x08001cc8       0x30 FreeModbus/port/portserial.o
                0x08001cc8                HAL_UART_RxCpltCallback
 .text.HAL_UART_TxCpltCallback
                0x08001cf8       0x20 FreeModbus/port/portserial.o
                0x08001cf8                HAL_UART_TxCpltCallback
 .text.xMBPortTimersInit
                0x08001d18       0x14 FreeModbus/port/porttimer.o
                0x08001d18                xMBPortTimersInit
 .text.vMBPortTimersEnable
                0x08001d2c       0x1c FreeModbus/port/porttimer.o
                0x08001d2c                vMBPortTimersEnable
 .text.vMBPortTimersDisable
                0x08001d48       0x10 FreeModbus/port/porttimer.o
                0x08001d48                vMBPortTimersDisable
 .text.HAL_TIM_PeriodElapsedCallback
                0x08001d58       0x34 FreeModbus/port/porttimer.o
                0x08001d58                HAL_TIM_PeriodElapsedCallback
 .text.usMBCRC16
                0x08001d8c       0x34 FreeModbus/rtu/mbcrc.o
                0x08001d8c                usMBCRC16
 .text.eMBRTUInit
                0x08001dc0       0x50 FreeModbus/rtu/mbrtu.o
                0x08001dc0                eMBRTUInit
 .text.eMBRTUStart
                0x08001e10       0x20 FreeModbus/rtu/mbrtu.o
                0x08001e10                eMBRTUStart
 .text.eMBRTUStop
                0x08001e30       0x18 FreeModbus/rtu/mbrtu.o
                0x08001e30                eMBRTUStop
 .text.eMBRTUReceive
                0x08001e48       0x50 FreeModbus/rtu/mbrtu.o
                0x08001e48                eMBRTUReceive
 .text.eMBRTUSend
                0x08001e98       0x78 FreeModbus/rtu/mbrtu.o
                0x08001e98                eMBRTUSend
 .text.xMBRTUReceiveFSM
                0x08001f10       0x88 FreeModbus/rtu/mbrtu.o
                0x08001f10                xMBRTUReceiveFSM
 .text.xMBRTUTransmitFSM
                0x08001f98       0x58 FreeModbus/rtu/mbrtu.o
                0x08001f98                xMBRTUTransmitFSM
 .text.xMBRTUTimerT35Expired
                0x08001ff0       0x38 FreeModbus/rtu/mbrtu.o
                0x08001ff0                xMBRTUTimerT35Expired
 .text.MX_GPIO_Init
                0x08002028       0xa4 Src/main.o
 .text.MX_TIM4_Init
                0x080020cc       0x54 Src/main.o
 .text.MX_USART1_UART_Init
                0x08002120       0x2c Src/main.o
 .text.SystemClock_Config
                0x0800214c       0x52 Src/main.o
                0x0800214c                SystemClock_Config
 *fill*         0x0800219e        0x2 
 .text.main     0x080021a0       0x70 Src/main.o
                0x080021a0                main
 .text.HAL_MspInit
                0x08002210       0x44 Src/stm32f1xx_hal_msp.o
                0x08002210                HAL_MspInit
 .text.HAL_TIM_Base_MspInit
                0x08002254       0x40 Src/stm32f1xx_hal_msp.o
                0x08002254                HAL_TIM_Base_MspInit
 .text.HAL_UART_MspInit
                0x08002294       0x88 Src/stm32f1xx_hal_msp.o
                0x08002294                HAL_UART_MspInit
 .text.NMI_Handler
                0x0800231c        0x2 Src/stm32f1xx_it.o
                0x0800231c                NMI_Handler
 .text.HardFault_Handler
                0x0800231e        0x2 Src/stm32f1xx_it.o
                0x0800231e                HardFault_Handler
 .text.MemManage_Handler
                0x08002320        0x2 Src/stm32f1xx_it.o
                0x08002320                MemManage_Handler
 .text.BusFault_Handler
                0x08002322        0x2 Src/stm32f1xx_it.o
                0x08002322                BusFault_Handler
 .text.UsageFault_Handler
                0x08002324        0x2 Src/stm32f1xx_it.o
                0x08002324                UsageFault_Handler
 .text.SVC_Handler
                0x08002326        0x2 Src/stm32f1xx_it.o
                0x08002326                SVC_Handler
 .text.DebugMon_Handler
                0x08002328        0x2 Src/stm32f1xx_it.o
                0x08002328                DebugMon_Handler
 .text.PendSV_Handler
                0x0800232a        0x2 Src/stm32f1xx_it.o
                0x0800232a                PendSV_Handler
 .text.SysTick_Handler
                0x0800232c        0x8 Src/stm32f1xx_it.o
                0x0800232c                SysTick_Handler
 .text.TIM4_IRQHandler
                0x08002334       0x10 Src/stm32f1xx_it.o
                0x08002334                TIM4_IRQHandler
 .text.USART1_IRQHandler
                0x08002344       0x10 Src/stm32f1xx_it.o
                0x08002344                USART1_IRQHandler
 .text.SystemInit
                0x08002354       0x4c Src/system_stm32f1xx.o
                0x08002354                SystemInit
 .text.Reset_Handler
                0x080023a0       0x48 startup/startup_stm32f103xb.o
                0x080023a0                Reset_Handler
 .text.Default_Handler
                0x080023e8        0x2 startup/startup_stm32f103xb.o
                0x080023e8                RTC_Alarm_IRQHandler
                0x080023e8                EXTI2_IRQHandler
                0x080023e8                TIM1_CC_IRQHandler
                0x080023e8                PVD_IRQHandler
                0x080023e8                EXTI3_IRQHandler
                0x080023e8                EXTI0_IRQHandler
                0x080023e8                I2C2_EV_IRQHandler
                0x080023e8                ADC1_2_IRQHandler
                0x080023e8                SPI1_IRQHandler
                0x080023e8                TAMPER_IRQHandler
                0x080023e8                DMA1_Channel4_IRQHandler
                0x080023e8                USART3_IRQHandler
                0x080023e8                RTC_IRQHandler
                0x080023e8                DMA1_Channel7_IRQHandler
                0x080023e8                CAN1_RX1_IRQHandler
                0x080023e8                I2C1_EV_IRQHandler
                0x080023e8                DMA1_Channel6_IRQHandler
                0x080023e8                TIM3_IRQHandler
                0x080023e8                RCC_IRQHandler
                0x080023e8                TIM1_TRG_COM_IRQHandler
                0x080023e8                DMA1_Channel1_IRQHandler
                0x080023e8                Default_Handler
                0x080023e8                EXTI15_10_IRQHandler
                0x080023e8                EXTI9_5_IRQHandler
                0x080023e8                SPI2_IRQHandler
                0x080023e8                DMA1_Channel5_IRQHandler
                0x080023e8                EXTI4_IRQHandler
                0x080023e8                USB_LP_CAN1_RX0_IRQHandler
                0x080023e8                USB_HP_CAN1_TX_IRQHandler
                0x080023e8                DMA1_Channel3_IRQHandler
                0x080023e8                TIM1_UP_IRQHandler
                0x080023e8                WWDG_IRQHandler
                0x080023e8                TIM2_IRQHandler
                0x080023e8                TIM1_BRK_IRQHandler
                0x080023e8                EXTI1_IRQHandler
                0x080023e8                USART2_IRQHandler
                0x080023e8                I2C2_ER_IRQHandler
                0x080023e8                DMA1_Channel2_IRQHandler
                0x080023e8                CAN1_SCE_IRQHandler
                0x080023e8                FLASH_IRQHandler
                0x080023e8                I2C1_ER_IRQHandler
                0x080023e8                USBWakeUp_IRQHandler
 *fill*         0x080023ea        0x2 
 .text.__libc_init_array
                0x080023ec       0x48 c:/ac6/systemworkbench/plugins/fr.ac6.mcu.externaltools.arm-none.win32_1.17.0.201812190825/tools/compiler/bin/../lib/gcc/arm-none-eabi/7.3.1/../../../../arm-none-eabi/lib/thumb/v7-m\libc_nano.a(lib_a-init.o)
                0x080023ec                __libc_init_array
 .text.memcpy   0x08002434       0x16 c:/ac6/systemworkbench/plugins/fr.ac6.mcu.externaltools.arm-none.win32_1.17.0.201812190825/tools/compiler/bin/../lib/gcc/arm-none-eabi/7.3.1/../../../../arm-none-eabi/lib/thumb/v7-m\libc_nano.a(lib_a-memcpy-stub.o)
                0x08002434                memcpy
 *(.glue_7)
 .glue_7        0x0800244a        0x0 linker stubs
 *(.glue_7t)
 .glue_7t       0x0800244a        0x0 linker stubs
 *(.eh_frame)
 *fill*         0x0800244a        0x2 
 .eh_frame      0x0800244c        0x0 c:/ac6/systemworkbench/plugins/fr.ac6.mcu.externaltools.arm-none.win32_1.17.0.201812190825/tools/compiler/bin/../lib/gcc/arm-none-eabi/7.3.1/thumb/v7-m/crtbegin.o
 *(.init)
 .init          0x0800244c        0x4 c:/ac6/systemworkbench/plugins/fr.ac6.mcu.externaltools.arm-none.win32_1.17.0.201812190825/tools/compiler/bin/../lib/gcc/arm-none-eabi/7.3.1/thumb/v7-m/crti.o
                0x0800244c                _init
 .init          0x08002450        0x8 c:/ac6/systemworkbench/plugins/fr.ac6.mcu.externaltools.arm-none.win32_1.17.0.201812190825/tools/compiler/bin/../lib/gcc/arm-none-eabi/7.3.1/thumb/v7-m/crtn.o
 *(.fini)
 .fini          0x08002458        0x4 c:/ac6/systemworkbench/plugins/fr.ac6.mcu.externaltools.arm-none.win32_1.17.0.201812190825/tools/compiler/bin/../lib/gcc/arm-none-eabi/7.3.1/thumb/v7-m/crti.o
                0x08002458                _fini
 .fini          0x0800245c        0x8 c:/ac6/systemworkbench/plugins/fr.ac6.mcu.externaltools.arm-none.win32_1.17.0.201812190825/tools/compiler/bin/../lib/gcc/arm-none-eabi/7.3.1/thumb/v7-m/crtn.o
                0x08002464                . = ALIGN (0x4)
                0x08002464                _etext = .

.vfp11_veneer   0x08002464        0x0
 .vfp11_veneer  0x08002464        0x0 linker stubs

.v4_bx          0x08002464        0x0
 .v4_bx         0x08002464        0x0 linker stubs

.iplt           0x08002464        0x0
 .iplt          0x08002464        0x0 c:/ac6/systemworkbench/plugins/fr.ac6.mcu.externaltools.arm-none.win32_1.17.0.201812190825/tools/compiler/bin/../lib/gcc/arm-none-eabi/7.3.1/thumb/v7-m/crtbegin.o

.rodata         0x08002464      0x22c
                0x08002464                . = ALIGN (0x4)
 *(.rodata)
 .rodata        0x08002464       0x12 Drivers/STM32F1xx_HAL_Driver/Src/stm32f1xx_hal_rcc.o
 *fill*         0x08002476        0x2 
 .rodata        0x08002478      0x200 FreeModbus/rtu/mbcrc.o
 .rodata        0x08002678       0x18 Src/system_stm32f1xx.o
                0x08002678                AHBPrescTable
                0x08002688                APBPrescTable
 *(.rodata*)
                0x08002690                . = ALIGN (0x4)

.rel.dyn        0x08002690        0x0
 .rel.iplt      0x08002690        0x0 c:/ac6/systemworkbench/plugins/fr.ac6.mcu.externaltools.arm-none.win32_1.17.0.201812190825/tools/compiler/bin/../lib/gcc/arm-none-eabi/7.3.1/thumb/v7-m/crtbegin.o

.ARM.extab
 *(.ARM.extab* .gnu.linkonce.armextab.*)

.ARM            0x08002690        0x0
                0x08002690                __exidx_start = .
 *(.ARM.exidx*)
                0x08002690                __exidx_end = .

.preinit_array  0x08002690        0x0
                0x08002690                PROVIDE (__preinit_array_start = .)
 *(.preinit_array*)
                0x08002690                PROVIDE (__preinit_array_end = .)

.init_array     0x08002690        0x4
                0x08002690                PROVIDE (__init_array_start = .)
 *(SORT_BY_NAME(.init_array.*))
 *(.init_array*)
 .init_array    0x08002690        0x4 c:/ac6/systemworkbench/plugins/fr.ac6.mcu.externaltools.arm-none.win32_1.17.0.201812190825/tools/compiler/bin/../lib/gcc/arm-none-eabi/7.3.1/thumb/v7-m/crtbegin.o
                0x08002694                PROVIDE (__init_array_end = .)

.fini_array     0x08002694        0x4
                [!provide]                PROVIDE (__fini_array_start = .)
 *(SORT_BY_NAME(.fini_array.*))
 *(.fini_array*)
 .fini_array    0x08002694        0x4 c:/ac6/systemworkbench/plugins/fr.ac6.mcu.externaltools.arm-none.win32_1.17.0.201812190825/tools/compiler/bin/../lib/gcc/arm-none-eabi/7.3.1/thumb/v7-m/crtbegin.o
                [!provide]                PROVIDE (__fini_array_end = .)
                0x08002698                _sidata = LOADADDR (.data)

.data           0x20000000       0x90 load address 0x08002698
                0x20000000                . = ALIGN (0x4)
                0x20000000                _sdata = .
 *(.data)
 .data          0x20000000        0x8 Drivers/STM32F1xx_HAL_Driver/Src/stm32f1xx_hal.o
                0x20000000                uwTickFreq
                0x20000004                uwTickPrio
 .data          0x20000008       0x84 FreeModbus/mb.o
 .data          0x2000008c        0x4 Src/system_stm32f1xx.o
                0x2000008c                SystemCoreClock
 *(.data*)
                0x20000090                . = ALIGN (0x4)
                0x20000090                _edata = .

.igot.plt       0x20000090        0x0 load address 0x08002728
 .igot.plt      0x20000090        0x0 c:/ac6/systemworkbench/plugins/fr.ac6.mcu.externaltools.arm-none.win32_1.17.0.201812190825/tools/compiler/bin/../lib/gcc/arm-none-eabi/7.3.1/thumb/v7-m/crtbegin.o
                0x20000090                . = ALIGN (0x4)

.bss            0x20000090      0x258 load address 0x08002728
                0x20000090                _sbss = .
                0x20000090                __bss_start__ = _sbss
 *(.bss)
 .bss           0x20000090       0x1c c:/ac6/systemworkbench/plugins/fr.ac6.mcu.externaltools.arm-none.win32_1.17.0.201812190825/tools/compiler/bin/../lib/gcc/arm-none-eabi/7.3.1/thumb/v7-m/crtbegin.o
 .bss           0x200000ac        0x4 FreeModbus/app/user_mb_app.o
                0x200000ac                usSRegHoldStart
                0x200000ae                usSDiscInStart
 .bss           0x200000b0       0x22 FreeModbus/functions/mbfuncother.o
 *fill*         0x200000d2        0x2 
 .bss           0x200000d4       0x23 FreeModbus/mb.o
 *fill*         0x200000f7        0x1 
 .bss           0x200000f8        0x4 FreeModbus/port/portcritical.o
 .bss           0x200000fc        0x2 FreeModbus/port/portevent.o
 .bss           0x200000fe        0x1 FreeModbus/port/portserial.o
 *fill*         0x200000ff        0x1 
 .bss           0x20000100        0x4 FreeModbus/port/porttimer.o
                0x20000102                counter
 .bss           0x20000104        0xb FreeModbus/rtu/mbrtu.o
 *(.bss*)
 *(COMMON)
 *fill*         0x2000010f        0x1 
 COMMON         0x20000110        0x4 Drivers/STM32F1xx_HAL_Driver/Src/stm32f1xx_hal.o
                0x20000110                uwTick
 COMMON         0x20000114       0x2c FreeModbus/app/user_mb_app.o
                0x20000114                ucSDiscInBuf
                0x20000118                usSRegHoldBuf
 COMMON         0x20000140       0x14 FreeModbus/mb.o
                0x20000140                pxMBFrameCBTransmitterEmpty
                0x20000144                pxMBPortCBTimerExpired
                0x20000148                pxMBFrameCBByteReceived
                0x2000014c                pxMBFrameCBTransmitFSMCur
                0x20000150                pxMBFrameCBReceiveFSMCur
 COMMON         0x20000154        0x4 FreeModbus/port/portserial.o
                0x20000154                uart
 COMMON         0x20000158        0x4 FreeModbus/port/porttimer.o
                0x20000158                tim
 COMMON         0x2000015c      0x100 FreeModbus/rtu/mbrtu.o
                0x2000015c                ucRTUBuf
 COMMON         0x2000025c       0x8c Src/main.o
                0x2000025c                htim4
                0x200002a4                huart1
                0x200002e4                adc_data
                0x200002e8                . = ALIGN (0x4)
                0x200002e8                _ebss = .
                0x200002e8                __bss_end__ = _ebss

._user_heap_stack
                0x200002e8      0x600 load address 0x08002728
                0x200002e8                . = ALIGN (0x8)
                0x200002e8                PROVIDE (end = .)
                [!provide]                PROVIDE (_end = .)
                0x200004e8                . = (. + _Min_Heap_Size)
 *fill*         0x200002e8      0x200 
                0x200008e8                . = (. + _Min_Stack_Size)
 *fill*         0x200004e8      0x400 
                0x200008e8                . = ALIGN (0x8)

/DISCARD/
 libc.a(*)
 libm.a(*)
 libgcc.a(*)

.ARM.attributes
                0x00000000       0x29
 *(.ARM.attributes)
 .ARM.attributes
                0x00000000       0x1d c:/ac6/systemworkbench/plugins/fr.ac6.mcu.externaltools.arm-none.win32_1.17.0.201812190825/tools/compiler/bin/../lib/gcc/arm-none-eabi/7.3.1/thumb/v7-m/crti.o
 .ARM.attributes
                0x0000001d       0x2d c:/ac6/systemworkbench/plugins/fr.ac6.mcu.externaltools.arm-none.win32_1.17.0.201812190825/tools/compiler/bin/../lib/gcc/arm-none-eabi/7.3.1/thumb/v7-m/crtbegin.o
 .ARM.attributes
                0x0000004a       0x33 Drivers/STM32F1xx_HAL_Driver/Src/stm32f1xx_hal.o
 .ARM.attributes
                0x0000007d       0x33 Drivers/STM32F1xx_HAL_Driver/Src/stm32f1xx_hal_cortex.o
 .ARM.attributes
                0x000000b0       0x33 Drivers/STM32F1xx_HAL_Driver/Src/stm32f1xx_hal_dma.o
 .ARM.attributes
                0x000000e3       0x33 Drivers/STM32F1xx_HAL_Driver/Src/stm32f1xx_hal_gpio.o
 .ARM.attributes
                0x00000116       0x33 Drivers/STM32F1xx_HAL_Driver/Src/stm32f1xx_hal_rcc.o
 .ARM.attributes
                0x00000149       0x33 Drivers/STM32F1xx_HAL_Driver/Src/stm32f1xx_hal_tim.o
 .ARM.attributes
                0x0000017c       0x33 Drivers/STM32F1xx_HAL_Driver/Src/stm32f1xx_hal_tim_ex.o
 .ARM.attributes
                0x000001af       0x33 Drivers/STM32F1xx_HAL_Driver/Src/stm32f1xx_hal_uart.o
 .ARM.attributes
                0x000001e2       0x33 FreeModbus/app/user_mb_app.o
 .ARM.attributes
                0x00000215       0x33 FreeModbus/functions/mbfunccoils.o
 .ARM.attributes
                0x00000248       0x33 FreeModbus/functions/mbfuncdisc.o
 .ARM.attributes
                0x0000027b       0x33 FreeModbus/functions/mbfuncholding.o
 .ARM.attributes
                0x000002ae       0x33 FreeModbus/functions/mbfuncinput.o
 .ARM.attributes
                0x000002e1       0x33 FreeModbus/functions/mbfuncother.o
 .ARM.attributes
                0x00000314       0x33 FreeModbus/functions/mbutils.o
 .ARM.attributes
                0x00000347       0x33 FreeModbus/mb.o
 .ARM.attributes
                0x0000037a       0x33 FreeModbus/port/portcritical.o
 .ARM.attributes
                0x000003ad       0x33 FreeModbus/port/portevent.o
 .ARM.attributes
                0x000003e0       0x33 FreeModbus/port/portserial.o
 .ARM.attributes
                0x00000413       0x33 FreeModbus/port/porttimer.o
 .ARM.attributes
                0x00000446       0x33 FreeModbus/rtu/mbcrc.o
 .ARM.attributes
                0x00000479       0x33 FreeModbus/rtu/mbrtu.o
 .ARM.attributes
                0x000004ac       0x33 Src/main.o
 .ARM.attributes
                0x000004df       0x33 Src/stm32f1xx_hal_msp.o
 .ARM.attributes
                0x00000512       0x33 Src/stm32f1xx_it.o
 .ARM.attributes
                0x00000545       0x33 Src/system_stm32f1xx.o
 .ARM.attributes
                0x00000578       0x21 startup/startup_stm32f103xb.o
 .ARM.attributes
                0x00000599       0x2d c:/ac6/systemworkbench/plugins/fr.ac6.mcu.externaltools.arm-none.win32_1.17.0.201812190825/tools/compiler/bin/../lib/gcc/arm-none-eabi/7.3.1/../../../../arm-none-eabi/lib/thumb/v7-m\libc_nano.a(lib_a-init.o)
 .ARM.attributes
                0x000005c6       0x2d c:/ac6/systemworkbench/plugins/fr.ac6.mcu.externaltools.arm-none.win32_1.17.0.201812190825/tools/compiler/bin/../lib/gcc/arm-none-eabi/7.3.1/../../../../arm-none-eabi/lib/thumb/v7-m\libc_nano.a(lib_a-memcpy-stub.o)
 .ARM.attributes
                0x000005f3       0x1d c:/ac6/systemworkbench/plugins/fr.ac6.mcu.externaltools.arm-none.win32_1.17.0.201812190825/tools/compiler/bin/../lib/gcc/arm-none-eabi/7.3.1/thumb/v7-m/crtn.o
OUTPUT(test_modbus_stm32f103.elf elf32-littlearm)

.debug_info     0x00000000    0x1440c
 .debug_info    0x00000000      0x7c0 Drivers/STM32F1xx_HAL_Driver/Src/stm32f1xx_hal.o
 .debug_info    0x000007c0      0xcb5 Drivers/STM32F1xx_HAL_Driver/Src/stm32f1xx_hal_cortex.o
 .debug_info    0x00001475      0x846 Drivers/STM32F1xx_HAL_Driver/Src/stm32f1xx_hal_dma.o
 .debug_info    0x00001cbb      0x6ab Drivers/STM32F1xx_HAL_Driver/Src/stm32f1xx_hal_gpio.o
 .debug_info    0x00002366      0x9ef Drivers/STM32F1xx_HAL_Driver/Src/stm32f1xx_hal_rcc.o
 .debug_info    0x00002d55     0x3554 Drivers/STM32F1xx_HAL_Driver/Src/stm32f1xx_hal_tim.o
 .debug_info    0x000062a9     0x1787 Drivers/STM32F1xx_HAL_Driver/Src/stm32f1xx_hal_tim_ex.o
 .debug_info    0x00007a30     0x1681 Drivers/STM32F1xx_HAL_Driver/Src/stm32f1xx_hal_uart.o
 .debug_info    0x000090b1      0x50f FreeModbus/app/user_mb_app.o
 .debug_info    0x000095c0      0xd21 FreeModbus/functions/mbfunccoils.o
 .debug_info    0x0000a2e1      0xb95 FreeModbus/functions/mbfuncdisc.o
 .debug_info    0x0000ae76      0xdeb FreeModbus/functions/mbfuncholding.o
 .debug_info    0x0000bc61      0xb92 FreeModbus/functions/mbfuncinput.o
 .debug_info    0x0000c7f3      0xbff FreeModbus/functions/mbfuncother.o
 .debug_info    0x0000d3f2      0xc16 FreeModbus/functions/mbutils.o
 .debug_info    0x0000e008      0xfe3 FreeModbus/mb.o
 .debug_info    0x0000efeb      0x1dc FreeModbus/port/portcritical.o
 .debug_info    0x0000f1c7      0x29f FreeModbus/port/portevent.o
 .debug_info    0x0000f466      0x933 FreeModbus/port/portserial.o
 .debug_info    0x0000fd99      0x7fd FreeModbus/port/porttimer.o
 .debug_info    0x00010596      0x24b FreeModbus/rtu/mbcrc.o
 .debug_info    0x000107e1      0xfcc FreeModbus/rtu/mbrtu.o
 .debug_info    0x000117ad      0xfde Src/main.o
 .debug_info    0x0001278b      0xe06 Src/stm32f1xx_hal_msp.o
 .debug_info    0x00013591      0xa18 Src/stm32f1xx_it.o
 .debug_info    0x00013fa9      0x441 Src/system_stm32f1xx.o
 .debug_info    0x000143ea       0x22 startup/startup_stm32f103xb.o

.debug_abbrev   0x00000000     0x341a
 .debug_abbrev  0x00000000      0x1ed Drivers/STM32F1xx_HAL_Driver/Src/stm32f1xx_hal.o
 .debug_abbrev  0x000001ed      0x303 Drivers/STM32F1xx_HAL_Driver/Src/stm32f1xx_hal_cortex.o
 .debug_abbrev  0x000004f0      0x23c Drivers/STM32F1xx_HAL_Driver/Src/stm32f1xx_hal_dma.o
 .debug_abbrev  0x0000072c      0x1de Drivers/STM32F1xx_HAL_Driver/Src/stm32f1xx_hal_gpio.o
 .debug_abbrev  0x0000090a      0x257 Drivers/STM32F1xx_HAL_Driver/Src/stm32f1xx_hal_rcc.o
 .debug_abbrev  0x00000b61      0x237 Drivers/STM32F1xx_HAL_Driver/Src/stm32f1xx_hal_tim.o
 .debug_abbrev  0x00000d98      0x246 Drivers/STM32F1xx_HAL_Driver/Src/stm32f1xx_hal_tim_ex.o
 .debug_abbrev  0x00000fde      0x25f Drivers/STM32F1xx_HAL_Driver/Src/stm32f1xx_hal_uart.o
 .debug_abbrev  0x0000123d      0x148 FreeModbus/app/user_mb_app.o
 .debug_abbrev  0x00001385      0x24b FreeModbus/functions/mbfunccoils.o
 .debug_abbrev  0x000015d0      0x23c FreeModbus/functions/mbfuncdisc.o
 .debug_abbrev  0x0000180c      0x23c FreeModbus/functions/mbfuncholding.o
 .debug_abbrev  0x00001a48      0x23c FreeModbus/functions/mbfuncinput.o
 .debug_abbrev  0x00001c84      0x22f FreeModbus/functions/mbfuncother.o
 .debug_abbrev  0x00001eb3      0x22c FreeModbus/functions/mbutils.o
 .debug_abbrev  0x000020df      0x2f0 FreeModbus/mb.o
 .debug_abbrev  0x000023cf       0xdd FreeModbus/port/portcritical.o
 .debug_abbrev  0x000024ac      0x10b FreeModbus/port/portevent.o
 .debug_abbrev  0x000025b7      0x201 FreeModbus/port/portserial.o
 .debug_abbrev  0x000027b8      0x1ee FreeModbus/port/porttimer.o
 .debug_abbrev  0x000029a6       0xe8 FreeModbus/rtu/mbcrc.o
 .debug_abbrev  0x00002a8e      0x2aa FreeModbus/rtu/mbrtu.o
 .debug_abbrev  0x00002d38      0x247 Src/main.o
 .debug_abbrev  0x00002f7f      0x1d4 Src/stm32f1xx_hal_msp.o
 .debug_abbrev  0x00003153      0x181 Src/stm32f1xx_it.o
 .debug_abbrev  0x000032d4      0x134 Src/system_stm32f1xx.o
 .debug_abbrev  0x00003408       0x12 startup/startup_stm32f103xb.o

.debug_loc      0x00000000     0xb24c
 .debug_loc     0x00000000      0x11b Drivers/STM32F1xx_HAL_Driver/Src/stm32f1xx_hal.o
 .debug_loc     0x0000011b      0x5ad Drivers/STM32F1xx_HAL_Driver/Src/stm32f1xx_hal_cortex.o
 .debug_loc     0x000006c8      0x7c6 Drivers/STM32F1xx_HAL_Driver/Src/stm32f1xx_hal_dma.o
 .debug_loc     0x00000e8e      0x3d8 Drivers/STM32F1xx_HAL_Driver/Src/stm32f1xx_hal_gpio.o
 .debug_loc     0x00001266      0x4bb Drivers/STM32F1xx_HAL_Driver/Src/stm32f1xx_hal_rcc.o
 .debug_loc     0x00001721     0x46c3 Drivers/STM32F1xx_HAL_Driver/Src/stm32f1xx_hal_tim.o
 .debug_loc     0x00005de4     0x1a68 Drivers/STM32F1xx_HAL_Driver/Src/stm32f1xx_hal_tim_ex.o
 .debug_loc     0x0000784c     0x1624 Drivers/STM32F1xx_HAL_Driver/Src/stm32f1xx_hal_uart.o
 .debug_loc     0x00008e70      0x349 FreeModbus/app/user_mb_app.o
 .debug_loc     0x000091b9      0x5ad FreeModbus/functions/mbfunccoils.o
 .debug_loc     0x00009766      0x23c FreeModbus/functions/mbfuncdisc.o
 .debug_loc     0x000099a2      0x77f FreeModbus/functions/mbfuncholding.o
 .debug_loc     0x0000a121      0x1d2 FreeModbus/functions/mbfuncinput.o
 .debug_loc     0x0000a2f3      0x1d0 FreeModbus/functions/mbfuncother.o
 .debug_loc     0x0000a4c3      0x2cc FreeModbus/functions/mbutils.o
 .debug_loc     0x0000a78f      0x334 FreeModbus/mb.o
 .debug_loc     0x0000aac3       0x6e FreeModbus/port/portevent.o
 .debug_loc     0x0000ab31      0x165 FreeModbus/port/portserial.o
 .debug_loc     0x0000ac96       0x5c FreeModbus/port/porttimer.o
 .debug_loc     0x0000acf2       0xc8 FreeModbus/rtu/mbcrc.o
 .debug_loc     0x0000adba      0x2bb FreeModbus/rtu/mbrtu.o
 .debug_loc     0x0000b075       0x29 Src/main.o
 .debug_loc     0x0000b09e       0xcf Src/stm32f1xx_hal_msp.o
 .debug_loc     0x0000b16d       0xdf Src/system_stm32f1xx.o

.debug_aranges  0x00000000      0xe08
 .debug_aranges
                0x00000000       0xe0 Drivers/STM32F1xx_HAL_Driver/Src/stm32f1xx_hal.o
 .debug_aranges
                0x000000e0       0x90 Drivers/STM32F1xx_HAL_Driver/Src/stm32f1xx_hal_cortex.o
 .debug_aranges
                0x00000170       0x80 Drivers/STM32F1xx_HAL_Driver/Src/stm32f1xx_hal_dma.o
 .debug_aranges
                0x000001f0       0x58 Drivers/STM32F1xx_HAL_Driver/Src/stm32f1xx_hal_gpio.o
 .debug_aranges
                0x00000248       0x90 Drivers/STM32F1xx_HAL_Driver/Src/stm32f1xx_hal_rcc.o
 .debug_aranges
                0x000002d8      0x3d0 Drivers/STM32F1xx_HAL_Driver/Src/stm32f1xx_hal_tim.o
 .debug_aranges
                0x000006a8      0x168 Drivers/STM32F1xx_HAL_Driver/Src/stm32f1xx_hal_tim_ex.o
 .debug_aranges
                0x00000810      0x1d0 Drivers/STM32F1xx_HAL_Driver/Src/stm32f1xx_hal_uart.o
 .debug_aranges
                0x000009e0       0x38 FreeModbus/app/user_mb_app.o
 .debug_aranges
                0x00000a18       0x30 FreeModbus/functions/mbfunccoils.o
 .debug_aranges
                0x00000a48       0x20 FreeModbus/functions/mbfuncdisc.o
 .debug_aranges
                0x00000a68       0x38 FreeModbus/functions/mbfuncholding.o
 .debug_aranges
                0x00000aa0       0x20 FreeModbus/functions/mbfuncinput.o
 .debug_aranges
                0x00000ac0       0x28 FreeModbus/functions/mbfuncother.o
 .debug_aranges
                0x00000ae8       0x30 FreeModbus/functions/mbutils.o
 .debug_aranges
                0x00000b18       0x48 FreeModbus/mb.o
 .debug_aranges
                0x00000b60       0x28 FreeModbus/port/portcritical.o
 .debug_aranges
                0x00000b88       0x30 FreeModbus/port/portevent.o
 .debug_aranges
                0x00000bb8       0x58 FreeModbus/port/portserial.o
 .debug_aranges
                0x00000c10       0x38 FreeModbus/port/porttimer.o
 .debug_aranges
                0x00000c48       0x20 FreeModbus/rtu/mbcrc.o
 .debug_aranges
                0x00000c68       0x58 FreeModbus/rtu/mbrtu.o
 .debug_aranges
                0x00000cc0       0x48 Src/main.o
 .debug_aranges
                0x00000d08       0x40 Src/stm32f1xx_hal_msp.o
 .debug_aranges
                0x00000d48       0x70 Src/stm32f1xx_it.o
 .debug_aranges
                0x00000db8       0x28 Src/system_stm32f1xx.o
 .debug_aranges
                0x00000de0       0x28 startup/startup_stm32f103xb.o

.debug_ranges   0x00000000      0xce0
 .debug_ranges  0x00000000       0xd0 Drivers/STM32F1xx_HAL_Driver/Src/stm32f1xx_hal.o
 .debug_ranges  0x000000d0       0xe0 Drivers/STM32F1xx_HAL_Driver/Src/stm32f1xx_hal_cortex.o
 .debug_ranges  0x000001b0       0x70 Drivers/STM32F1xx_HAL_Driver/Src/stm32f1xx_hal_dma.o
 .debug_ranges  0x00000220       0x48 Drivers/STM32F1xx_HAL_Driver/Src/stm32f1xx_hal_gpio.o
 .debug_ranges  0x00000268       0xa0 Drivers/STM32F1xx_HAL_Driver/Src/stm32f1xx_hal_rcc.o
 .debug_ranges  0x00000308      0x3c0 Drivers/STM32F1xx_HAL_Driver/Src/stm32f1xx_hal_tim.o
 .debug_ranges  0x000006c8      0x158 Drivers/STM32F1xx_HAL_Driver/Src/stm32f1xx_hal_tim_ex.o
 .debug_ranges  0x00000820      0x1c0 Drivers/STM32F1xx_HAL_Driver/Src/stm32f1xx_hal_uart.o
 .debug_ranges  0x000009e0       0x28 FreeModbus/app/user_mb_app.o
 .debug_ranges  0x00000a08       0x20 FreeModbus/functions/mbfunccoils.o
 .debug_ranges  0x00000a28       0x10 FreeModbus/functions/mbfuncdisc.o
 .debug_ranges  0x00000a38       0x28 FreeModbus/functions/mbfuncholding.o
 .debug_ranges  0x00000a60       0x10 FreeModbus/functions/mbfuncinput.o
 .debug_ranges  0x00000a70       0x18 FreeModbus/functions/mbfuncother.o
 .debug_ranges  0x00000a88       0x20 FreeModbus/functions/mbutils.o
 .debug_ranges  0x00000aa8       0x38 FreeModbus/mb.o
 .debug_ranges  0x00000ae0       0x18 FreeModbus/port/portcritical.o
 .debug_ranges  0x00000af8       0x20 FreeModbus/port/portevent.o
 .debug_ranges  0x00000b18       0x48 FreeModbus/port/portserial.o
 .debug_ranges  0x00000b60       0x28 FreeModbus/port/porttimer.o
 .debug_ranges  0x00000b88       0x10 FreeModbus/rtu/mbcrc.o
 .debug_ranges  0x00000b98       0x48 FreeModbus/rtu/mbrtu.o
 .debug_ranges  0x00000be0       0x38 Src/main.o
 .debug_ranges  0x00000c18       0x30 Src/stm32f1xx_hal_msp.o
 .debug_ranges  0x00000c48       0x60 Src/stm32f1xx_it.o
 .debug_ranges  0x00000ca8       0x18 Src/system_stm32f1xx.o
 .debug_ranges  0x00000cc0       0x20 startup/startup_stm32f103xb.o

.debug_macro    0x00000000    0x19e41
 .debug_macro   0x00000000      0x1c7 Drivers/STM32F1xx_HAL_Driver/Src/stm32f1xx_hal.o
 .debug_macro   0x000001c7      0xa54 Drivers/STM32F1xx_HAL_Driver/Src/stm32f1xx_hal.o
 .debug_macro   0x00000c1b      0x21b Drivers/STM32F1xx_HAL_Driver/Src/stm32f1xx_hal.o
 .debug_macro   0x00000e36       0x2e Drivers/STM32F1xx_HAL_Driver/Src/stm32f1xx_hal.o
 .debug_macro   0x00000e64       0x22 Drivers/STM32F1xx_HAL_Driver/Src/stm32f1xx_hal.o
 .debug_macro   0x00000e86       0x22 Drivers/STM32F1xx_HAL_Driver/Src/stm32f1xx_hal.o
 .debug_macro   0x00000ea8       0x8e Drivers/STM32F1xx_HAL_Driver/Src/stm32f1xx_hal.o
 .debug_macro   0x00000f36       0x51 Drivers/STM32F1xx_HAL_Driver/Src/stm32f1xx_hal.o
 .debug_macro   0x00000f87       0xef Drivers/STM32F1xx_HAL_Driver/Src/stm32f1xx_hal.o
 .debug_macro   0x00001076       0x6a Drivers/STM32F1xx_HAL_Driver/Src/stm32f1xx_hal.o
 .debug_macro   0x000010e0      0x1df Drivers/STM32F1xx_HAL_Driver/Src/stm32f1xx_hal.o
 .debug_macro   0x000012bf       0x1c Drivers/STM32F1xx_HAL_Driver/Src/stm32f1xx_hal.o
 .debug_macro   0x000012db       0x22 Drivers/STM32F1xx_HAL_Driver/Src/stm32f1xx_hal.o
 .debug_macro   0x000012fd       0xc3 Drivers/STM32F1xx_HAL_Driver/Src/stm32f1xx_hal.o
 .debug_macro   0x000013c0      0xd23 Drivers/STM32F1xx_HAL_Driver/Src/stm32f1xx_hal.o
 .debug_macro   0x000020e3     0xe097 Drivers/STM32F1xx_HAL_Driver/Src/stm32f1xx_hal.o
 .debug_macro   0x0001017a       0x43 Drivers/STM32F1xx_HAL_Driver/Src/stm32f1xx_hal.o
 .debug_macro   0x000101bd     0x3468 Drivers/STM32F1xx_HAL_Driver/Src/stm32f1xx_hal.o
 .debug_macro   0x00013625      0x174 Drivers/STM32F1xx_HAL_Driver/Src/stm32f1xx_hal.o
 .debug_macro   0x00013799       0x5c Drivers/STM32F1xx_HAL_Driver/Src/stm32f1xx_hal.o
 .debug_macro   0x000137f5      0x5be Drivers/STM32F1xx_HAL_Driver/Src/stm32f1xx_hal.o
 .debug_macro   0x00013db3      0x289 Drivers/STM32F1xx_HAL_Driver/Src/stm32f1xx_hal.o
 .debug_macro   0x0001403c      0x1cb Drivers/STM32F1xx_HAL_Driver/Src/stm32f1xx_hal.o
 .debug_macro   0x00014207      0x114 Drivers/STM32F1xx_HAL_Driver/Src/stm32f1xx_hal.o
 .debug_macro   0x0001431b      0x1b2 Drivers/STM32F1xx_HAL_Driver/Src/stm32f1xx_hal.o
 .debug_macro   0x000144cd       0x27 Drivers/STM32F1xx_HAL_Driver/Src/stm32f1xx_hal.o
 .debug_macro   0x000144f4      0x136 Drivers/STM32F1xx_HAL_Driver/Src/stm32f1xx_hal.o
 .debug_macro   0x0001462a      0x1bc Drivers/STM32F1xx_HAL_Driver/Src/stm32f1xx_hal.o
 .debug_macro   0x000147e6       0x34 Drivers/STM32F1xx_HAL_Driver/Src/stm32f1xx_hal.o
 .debug_macro   0x0001481a       0x3c Drivers/STM32F1xx_HAL_Driver/Src/stm32f1xx_hal.o
 .debug_macro   0x00014856       0x57 Drivers/STM32F1xx_HAL_Driver/Src/stm32f1xx_hal.o
 .debug_macro   0x000148ad       0x88 Drivers/STM32F1xx_HAL_Driver/Src/stm32f1xx_hal.o
 .debug_macro   0x00014935      0x241 Drivers/STM32F1xx_HAL_Driver/Src/stm32f1xx_hal.o
 .debug_macro   0x00014b76      0x141 Drivers/STM32F1xx_HAL_Driver/Src/stm32f1xx_hal.o
 .debug_macro   0x00014cb7      0x8d1 Drivers/STM32F1xx_HAL_Driver/Src/stm32f1xx_hal.o
 .debug_macro   0x00015588      0x26b Drivers/STM32F1xx_HAL_Driver/Src/stm32f1xx_hal.o
 .debug_macro   0x000157f3       0x83 Drivers/STM32F1xx_HAL_Driver/Src/stm32f1xx_hal.o
 .debug_macro   0x00015876      0x1a3 Drivers/STM32F1xx_HAL_Driver/Src/stm32f1xx_hal_cortex.o
 .debug_macro   0x00015a19      0x1a3 Drivers/STM32F1xx_HAL_Driver/Src/stm32f1xx_hal_dma.o
 .debug_macro   0x00015bbc      0x20e Drivers/STM32F1xx_HAL_Driver/Src/stm32f1xx_hal_gpio.o
 .debug_macro   0x00015dca      0x1b5 Drivers/STM32F1xx_HAL_Driver/Src/stm32f1xx_hal_rcc.o
 .debug_macro   0x00015f7f      0x1a4 Drivers/STM32F1xx_HAL_Driver/Src/stm32f1xx_hal_tim.o
 .debug_macro   0x00016123      0x1a3 Drivers/STM32F1xx_HAL_Driver/Src/stm32f1xx_hal_tim_ex.o
 .debug_macro   0x000162c6      0x1a4 Drivers/STM32F1xx_HAL_Driver/Src/stm32f1xx_hal_uart.o
 .debug_macro   0x0001646a      0x27c FreeModbus/app/user_mb_app.o
 .debug_macro   0x000166e6       0x58 FreeModbus/app/user_mb_app.o
 .debug_macro   0x0001673e       0x18 FreeModbus/app/user_mb_app.o
 .debug_macro   0x00016756       0x94 FreeModbus/app/user_mb_app.o
 .debug_macro   0x000167ea       0x35 FreeModbus/app/user_mb_app.o
 .debug_macro   0x0001681f       0x34 FreeModbus/app/user_mb_app.o
 .debug_macro   0x00016853       0x1c FreeModbus/app/user_mb_app.o
 .debug_macro   0x0001686f       0x57 FreeModbus/app/user_mb_app.o
 .debug_macro   0x000168c6       0x82 FreeModbus/app/user_mb_app.o
 .debug_macro   0x00016948      0x4cc FreeModbus/app/user_mb_app.o
 .debug_macro   0x00016e14       0x7c FreeModbus/app/user_mb_app.o
 .debug_macro   0x00016e90      0x104 FreeModbus/app/user_mb_app.o
 .debug_macro   0x00016f94       0x10 FreeModbus/app/user_mb_app.o
 .debug_macro   0x00016fa4       0x2e FreeModbus/app/user_mb_app.o
 .debug_macro   0x00016fd2       0x10 FreeModbus/app/user_mb_app.o
 .debug_macro   0x00016fe2       0x7c FreeModbus/app/user_mb_app.o
 .debug_macro   0x0001705e       0x10 FreeModbus/app/user_mb_app.o
 .debug_macro   0x0001706e       0x22 FreeModbus/app/user_mb_app.o
 .debug_macro   0x00017090       0x58 FreeModbus/app/user_mb_app.o
 .debug_macro   0x000170e8      0x35c FreeModbus/functions/mbfunccoils.o
 .debug_macro   0x00017444      0x326 FreeModbus/functions/mbfuncdisc.o
 .debug_macro   0x0001776a      0x386 FreeModbus/functions/mbfuncholding.o
 .debug_macro   0x00017af0      0x32c FreeModbus/functions/mbfuncinput.o
 .debug_macro   0x00017e1c      0x30e FreeModbus/functions/mbfuncother.o
 .debug_macro   0x0001812a      0x30b FreeModbus/functions/mbutils.o
 .debug_macro   0x00018435      0x32c FreeModbus/mb.o
 .debug_macro   0x00018761      0x1bc FreeModbus/port/portcritical.o
 .debug_macro   0x0001891d      0x255 FreeModbus/port/portevent.o
 .debug_macro   0x00018b72      0x265 FreeModbus/port/portserial.o
 .debug_macro   0x00018dd7      0x259 FreeModbus/port/porttimer.o
 .debug_macro   0x00019030      0x22f FreeModbus/rtu/mbcrc.o
 .debug_macro   0x0001925f      0x340 FreeModbus/rtu/mbrtu.o
 .debug_macro   0x0001959f      0x27f Src/main.o
 .debug_macro   0x0001981e       0x5e Src/main.o
 .debug_macro   0x0001987c       0x10 Src/main.o
 .debug_macro   0x0001988c      0x1b2 Src/stm32f1xx_hal_msp.o
 .debug_macro   0x00019a3e      0x25a Src/stm32f1xx_it.o
 .debug_macro   0x00019c98      0x1a9 Src/system_stm32f1xx.o

.debug_line     0x00000000    0x10929
 .debug_line    0x00000000      0x866 Drivers/STM32F1xx_HAL_Driver/Src/stm32f1xx_hal.o
 .debug_line    0x00000866      0x875 Drivers/STM32F1xx_HAL_Driver/Src/stm32f1xx_hal_cortex.o
 .debug_line    0x000010db      0xa11 Drivers/STM32F1xx_HAL_Driver/Src/stm32f1xx_hal_dma.o
 .debug_line    0x00001aec      0x837 Drivers/STM32F1xx_HAL_Driver/Src/stm32f1xx_hal_gpio.o
 .debug_line    0x00002323      0x970 Drivers/STM32F1xx_HAL_Driver/Src/stm32f1xx_hal_rcc.o
 .debug_line    0x00002c93     0x216a Drivers/STM32F1xx_HAL_Driver/Src/stm32f1xx_hal_tim.o
 .debug_line    0x00004dfd     0x1317 Drivers/STM32F1xx_HAL_Driver/Src/stm32f1xx_hal_tim_ex.o
 .debug_line    0x00006114      0xfd4 Drivers/STM32F1xx_HAL_Driver/Src/stm32f1xx_hal_uart.o
 .debug_line    0x000070e8      0x8ab FreeModbus/app/user_mb_app.o
 .debug_line    0x00007993      0x93e FreeModbus/functions/mbfunccoils.o
 .debug_line    0x000082d1      0x8b8 FreeModbus/functions/mbfuncdisc.o
 .debug_line    0x00008b89      0x962 FreeModbus/functions/mbfuncholding.o
 .debug_line    0x000094eb      0x8b9 FreeModbus/functions/mbfuncinput.o
 .debug_line    0x00009da4      0x8d5 FreeModbus/functions/mbfuncother.o
 .debug_line    0x0000a679      0x8c4 FreeModbus/functions/mbutils.o
 .debug_line    0x0000af3d      0x9e9 FreeModbus/mb.o
 .debug_line    0x0000b926      0x702 FreeModbus/port/portcritical.o
 .debug_line    0x0000c028      0x7dc FreeModbus/port/portevent.o
 .debug_line    0x0000c804      0x83e FreeModbus/port/portserial.o
 .debug_line    0x0000d042      0x7ee FreeModbus/port/porttimer.o
 .debug_line    0x0000d830      0x7e4 FreeModbus/rtu/mbcrc.o
 .debug_line    0x0000e014      0x98f FreeModbus/rtu/mbrtu.o
 .debug_line    0x0000e9a3      0x8d3 Src/main.o
 .debug_line    0x0000f276      0x6fb Src/stm32f1xx_hal_msp.o
 .debug_line    0x0000f971      0x87b Src/stm32f1xx_it.o
 .debug_line    0x000101ec      0x6c0 Src/system_stm32f1xx.o
 .debug_line    0x000108ac       0x7d startup/startup_stm32f103xb.o

.debug_str      0x00000000    0x8bce9
 .debug_str     0x00000000    0x83179 Drivers/STM32F1xx_HAL_Driver/Src/stm32f1xx_hal.o
                              0x83607 (size before relaxing)
 .debug_str     0x00083179      0x2c5 Drivers/STM32F1xx_HAL_Driver/Src/stm32f1xx_hal_cortex.o
                              0x835ca (size before relaxing)
 .debug_str     0x0008343e      0x3d7 Drivers/STM32F1xx_HAL_Driver/Src/stm32f1xx_hal_dma.o
                              0x83318 (size before relaxing)
 .debug_str     0x00083815      0x3a4 Drivers/STM32F1xx_HAL_Driver/Src/stm32f1xx_hal_gpio.o
                              0x832f5 (size before relaxing)
 .debug_str     0x00083bb9      0x35f Drivers/STM32F1xx_HAL_Driver/Src/stm32f1xx_hal_rcc.o
                              0x83355 (size before relaxing)
 .debug_str     0x00083f18     0x10e1 Drivers/STM32F1xx_HAL_Driver/Src/stm32f1xx_hal_tim.o
                              0x84353 (size before relaxing)
 .debug_str     0x00084ff9      0x549 Drivers/STM32F1xx_HAL_Driver/Src/stm32f1xx_hal_tim_ex.o
                              0x83b7d (size before relaxing)
 .debug_str     0x00085542      0x6eb Drivers/STM32F1xx_HAL_Driver/Src/stm32f1xx_hal_uart.o
                              0x838ab (size before relaxing)
 .debug_str     0x00085c2d     0x2092 FreeModbus/app/user_mb_app.o
                              0x84f61 (size before relaxing)
 .debug_str     0x00087cbf     0x2d57 FreeModbus/functions/mbfunccoils.o
                              0x879b9 (size before relaxing)
 .debug_str     0x0008aa16       0xe2 FreeModbus/functions/mbfuncdisc.o
                              0x877a2 (size before relaxing)
 .debug_str     0x0008aaf8      0x441 FreeModbus/functions/mbfuncholding.o
                              0x87bcb (size before relaxing)
 .debug_str     0x0008af39       0xac FreeModbus/functions/mbfuncinput.o
                              0x877c6 (size before relaxing)
 .debug_str     0x0008afe5       0xe0 FreeModbus/functions/mbfuncother.o
                              0x87710 (size before relaxing)
 .debug_str     0x0008b0c5       0xd9 FreeModbus/functions/mbutils.o
                              0x876ba (size before relaxing)
 .debug_str     0x0008b19e      0x31c FreeModbus/mb.o
                              0x87965 (size before relaxing)
 .debug_str     0x0008b4ba       0x80 FreeModbus/port/portcritical.o
                              0x82f8a (size before relaxing)
 .debug_str     0x0008b53a       0x81 FreeModbus/port/portevent.o
                              0x84c1c (size before relaxing)
 .debug_str     0x0008b5bb      0x1a0 FreeModbus/port/portserial.o
                              0x8516f (size before relaxing)
 .debug_str     0x0008b75b       0xb5 FreeModbus/port/porttimer.o
                              0x850f9 (size before relaxing)
 .debug_str     0x0008b810       0x75 FreeModbus/rtu/mbcrc.o
                              0x84879 (size before relaxing)
 .debug_str     0x0008b885      0x238 FreeModbus/rtu/mbrtu.o
                              0x878ba (size before relaxing)
 .debug_str     0x0008babd       0x95 Src/main.o
                              0x85764 (size before relaxing)
 .debug_str     0x0008bb52       0x25 Src/stm32f1xx_hal_msp.o
                              0x839bc (size before relaxing)
 .debug_str     0x0008bb77       0xda Src/stm32f1xx_it.o
                              0x852b3 (size before relaxing)
 .debug_str     0x0008bc51       0x69 Src/system_stm32f1xx.o
                              0x82fa6 (size before relaxing)
 .debug_str     0x0008bcba       0x2f startup/startup_stm32f103xb.o
                                 0x64 (size before relaxing)

.comment        0x00000000       0x7f
 .comment       0x00000000       0x7f Drivers/STM32F1xx_HAL_Driver/Src/stm32f1xx_hal.o
                                 0x80 (size before relaxing)
 .comment       0x0000007f       0x80 Drivers/STM32F1xx_HAL_Driver/Src/stm32f1xx_hal_cortex.o
 .comment       0x0000007f       0x80 Drivers/STM32F1xx_HAL_Driver/Src/stm32f1xx_hal_dma.o
 .comment       0x0000007f       0x80 Drivers/STM32F1xx_HAL_Driver/Src/stm32f1xx_hal_gpio.o
 .comment       0x0000007f       0x80 Drivers/STM32F1xx_HAL_Driver/Src/stm32f1xx_hal_rcc.o
 .comment       0x0000007f       0x80 Drivers/STM32F1xx_HAL_Driver/Src/stm32f1xx_hal_tim.o
 .comment       0x0000007f       0x80 Drivers/STM32F1xx_HAL_Driver/Src/stm32f1xx_hal_tim_ex.o
 .comment       0x0000007f       0x80 Drivers/STM32F1xx_HAL_Driver/Src/stm32f1xx_hal_uart.o
 .comment       0x0000007f       0x80 FreeModbus/app/user_mb_app.o
 .comment       0x0000007f       0x80 FreeModbus/functions/mbfunccoils.o
 .comment       0x0000007f       0x80 FreeModbus/functions/mbfuncdisc.o
 .comment       0x0000007f       0x80 FreeModbus/functions/mbfuncholding.o
 .comment       0x0000007f       0x80 FreeModbus/functions/mbfuncinput.o
 .comment       0x0000007f       0x80 FreeModbus/functions/mbfuncother.o
 .comment       0x0000007f       0x80 FreeModbus/functions/mbutils.o
 .comment       0x0000007f       0x80 FreeModbus/mb.o
 .comment       0x0000007f       0x80 FreeModbus/port/portcritical.o
 .comment       0x0000007f       0x80 FreeModbus/port/portevent.o
 .comment       0x0000007f       0x80 FreeModbus/port/portserial.o
 .comment       0x0000007f       0x80 FreeModbus/port/porttimer.o
 .comment       0x0000007f       0x80 FreeModbus/rtu/mbcrc.o
 .comment       0x0000007f       0x80 FreeModbus/rtu/mbrtu.o
 .comment       0x0000007f       0x80 Src/main.o
 .comment       0x0000007f       0x80 Src/stm32f1xx_hal_msp.o
 .comment       0x0000007f       0x80 Src/stm32f1xx_it.o
 .comment       0x0000007f       0x80 Src/system_stm32f1xx.o

.debug_frame    0x00000000     0x2484
 .debug_frame   0x00000000      0x1cc Drivers/STM32F1xx_HAL_Driver/Src/stm32f1xx_hal.o
 .debug_frame   0x000001cc      0x12c Drivers/STM32F1xx_HAL_Driver/Src/stm32f1xx_hal_cortex.o
 .debug_frame   0x000002f8      0x148 Drivers/STM32F1xx_HAL_Driver/Src/stm32f1xx_hal_dma.o
 .debug_frame   0x00000440       0xe8 Drivers/STM32F1xx_HAL_Driver/Src/stm32f1xx_hal_gpio.o
 .debug_frame   0x00000528      0x198 Drivers/STM32F1xx_HAL_Driver/Src/stm32f1xx_hal_rcc.o
 .debug_frame   0x000006c0      0xb8c Drivers/STM32F1xx_HAL_Driver/Src/stm32f1xx_hal_tim.o
 .debug_frame   0x0000124c      0x474 Drivers/STM32F1xx_HAL_Driver/Src/stm32f1xx_hal_tim_ex.o
 .debug_frame   0x000016c0      0x4e8 Drivers/STM32F1xx_HAL_Driver/Src/stm32f1xx_hal_uart.o
 .debug_frame   0x00001ba8       0x70 FreeModbus/app/user_mb_app.o
 .debug_frame   0x00001c18       0x94 FreeModbus/functions/mbfunccoils.o
 .debug_frame   0x00001cac       0x2c FreeModbus/functions/mbfuncdisc.o
 .debug_frame   0x00001cd8       0xac FreeModbus/functions/mbfuncholding.o
 .debug_frame   0x00001d84       0x40 FreeModbus/functions/mbfuncinput.o
 .debug_frame   0x00001dc4       0x48 FreeModbus/functions/mbfuncother.o
 .debug_frame   0x00001e0c       0x5c FreeModbus/functions/mbutils.o
 .debug_frame   0x00001e68       0xb4 FreeModbus/mb.o
 .debug_frame   0x00001f1c       0x30 FreeModbus/port/portcritical.o
 .debug_frame   0x00001f4c       0x40 FreeModbus/port/portevent.o
 .debug_frame   0x00001f8c       0xc4 FreeModbus/port/portserial.o
 .debug_frame   0x00002050       0x68 FreeModbus/port/porttimer.o
 .debug_frame   0x000020b8       0x30 FreeModbus/rtu/mbcrc.o
 .debug_frame   0x000020e8       0xec FreeModbus/rtu/mbrtu.o
 .debug_frame   0x000021d4       0xbc Src/main.o
 .debug_frame   0x00002290       0x98 Src/stm32f1xx_hal_msp.o
 .debug_frame   0x00002328       0xd8 Src/stm32f1xx_it.o
 .debug_frame   0x00002400       0x30 Src/system_stm32f1xx.o
 .debug_frame   0x00002430       0x2c c:/ac6/systemworkbench/plugins/fr.ac6.mcu.externaltools.arm-none.win32_1.17.0.201812190825/tools/compiler/bin/../lib/gcc/arm-none-eabi/7.3.1/../../../../arm-none-eabi/lib/thumb/v7-m\libc_nano.a(lib_a-init.o)
 .debug_frame   0x0000245c       0x28 c:/ac6/systemworkbench/plugins/fr.ac6.mcu.externaltools.arm-none.win32_1.17.0.201812190825/tools/compiler/bin/../lib/gcc/arm-none-eabi/7.3.1/../../../../arm-none-eabi/lib/thumb/v7-m\libc_nano.a(lib_a-memcpy-stub.o)
